{
  "address": "0xf33ad6405169ca16C32C0C2E1508B9742888B2Ed",
  "abi": [
    {
      "inputs": [
        {
          "internalType": "address",
          "name": "_owner",
          "type": "address"
        }
      ],
      "stateMutability": "nonpayable",
      "type": "constructor"
    },
    {
      "inputs": [],
      "name": "ECDSAInvalidSignature",
      "type": "error"
    },
    {
      "inputs": [
        {
          "internalType": "uint256",
          "name": "length",
          "type": "uint256"
        }
      ],
      "name": "ECDSAInvalidSignatureLength",
      "type": "error"
    },
    {
      "inputs": [
        {
          "internalType": "bytes32",
          "name": "s",
          "type": "bytes32"
        }
      ],
      "name": "ECDSAInvalidSignatureS",
      "type": "error"
    },
    {
      "inputs": [
        {
          "internalType": "address",
          "name": "spender",
          "type": "address"
        },
        {
          "internalType": "uint256",
          "name": "allowance",
          "type": "uint256"
        },
        {
          "internalType": "uint256",
          "name": "needed",
          "type": "uint256"
        }
      ],
      "name": "ERC20InsufficientAllowance",
      "type": "error"
    },
    {
      "inputs": [
        {
          "internalType": "address",
          "name": "sender",
          "type": "address"
        },
        {
          "internalType": "uint256",
          "name": "balance",
          "type": "uint256"
        },
        {
          "internalType": "uint256",
          "name": "needed",
          "type": "uint256"
        }
      ],
      "name": "ERC20InsufficientBalance",
      "type": "error"
    },
    {
      "inputs": [
        {
          "internalType": "address",
          "name": "approver",
          "type": "address"
        }
      ],
      "name": "ERC20InvalidApprover",
      "type": "error"
    },
    {
      "inputs": [
        {
          "internalType": "address",
          "name": "receiver",
          "type": "address"
        }
      ],
      "name": "ERC20InvalidReceiver",
      "type": "error"
    },
    {
      "inputs": [
        {
          "internalType": "address",
          "name": "sender",
          "type": "address"
        }
      ],
      "name": "ERC20InvalidSender",
      "type": "error"
    },
    {
      "inputs": [
        {
          "internalType": "address",
          "name": "spender",
          "type": "address"
        }
      ],
      "name": "ERC20InvalidSpender",
      "type": "error"
    },
    {
      "inputs": [
        {
          "internalType": "uint256",
          "name": "deadline",
          "type": "uint256"
        }
      ],
      "name": "ERC2612ExpiredSignature",
      "type": "error"
    },
    {
      "inputs": [
        {
          "internalType": "address",
          "name": "signer",
          "type": "address"
        },
        {
          "internalType": "address",
          "name": "owner",
          "type": "address"
        }
      ],
      "name": "ERC2612InvalidSigner",
      "type": "error"
    },
    {
      "inputs": [
        {
          "internalType": "address",
          "name": "account",
          "type": "address"
        },
        {
          "internalType": "uint256",
          "name": "currentNonce",
          "type": "uint256"
        }
      ],
      "name": "InvalidAccountNonce",
      "type": "error"
    },
    {
      "inputs": [],
      "name": "InvalidShortString",
      "type": "error"
    },
    {
      "inputs": [
        {
          "internalType": "address",
          "name": "owner",
          "type": "address"
        }
      ],
      "name": "OwnableInvalidOwner",
      "type": "error"
    },
    {
      "inputs": [
        {
          "internalType": "address",
          "name": "account",
          "type": "address"
        }
      ],
      "name": "OwnableUnauthorizedAccount",
      "type": "error"
    },
    {
      "inputs": [
        {
          "internalType": "string",
          "name": "str",
          "type": "string"
        }
      ],
      "name": "StringTooLong",
      "type": "error"
    },
    {
      "anonymous": false,
      "inputs": [
        {
          "indexed": true,
          "internalType": "address",
          "name": "owner",
          "type": "address"
        },
        {
          "indexed": true,
          "internalType": "address",
          "name": "spender",
          "type": "address"
        },
        {
          "indexed": false,
          "internalType": "uint256",
          "name": "value",
          "type": "uint256"
        }
      ],
      "name": "Approval",
      "type": "event"
    },
    {
      "anonymous": false,
      "inputs": [],
      "name": "EIP712DomainChanged",
      "type": "event"
    },
    {
      "anonymous": false,
      "inputs": [
        {
          "indexed": true,
          "internalType": "address",
          "name": "minter",
          "type": "address"
        }
      ],
      "name": "MinterAuthorized",
      "type": "event"
    },
    {
      "anonymous": false,
      "inputs": [
        {
          "indexed": true,
          "internalType": "address",
          "name": "minter",
          "type": "address"
        }
      ],
      "name": "MinterRevoked",
      "type": "event"
    },
    {
      "anonymous": false,
      "inputs": [
        {
          "indexed": true,
          "internalType": "address",
          "name": "previousOwner",
          "type": "address"
        },
        {
          "indexed": true,
          "internalType": "address",
          "name": "newOwner",
          "type": "address"
        }
      ],
      "name": "OwnershipTransferred",
      "type": "event"
    },
    {
      "anonymous": false,
      "inputs": [
        {
          "indexed": true,
          "internalType": "address",
          "name": "member",
          "type": "address"
        },
        {
          "indexed": false,
          "internalType": "uint256",
          "name": "amount",
          "type": "uint256"
        },
        {
          "indexed": false,
          "internalType": "uint256",
          "name": "contribution",
          "type": "uint256"
        }
      ],
      "name": "RewardDistributed",
      "type": "event"
    },
    {
      "anonymous": false,
      "inputs": [
        {
          "indexed": false,
          "internalType": "uint256",
          "name": "newRate",
          "type": "uint256"
        }
      ],
      "name": "RewardRateUpdated",
      "type": "event"
    },
    {
      "anonymous": false,
      "inputs": [
        {
          "indexed": true,
          "internalType": "address",
          "name": "from",
          "type": "address"
        },
        {
          "indexed": true,
          "internalType": "address",
          "name": "to",
          "type": "address"
        },
        {
          "indexed": false,
          "internalType": "uint256",
          "name": "value",
          "type": "uint256"
        }
      ],
      "name": "Transfer",
      "type": "event"
    },
    {
      "inputs": [],
      "name": "DOMAIN_SEPARATOR",
      "outputs": [
        {
          "internalType": "bytes32",
          "name": "",
          "type": "bytes32"
        }
      ],
      "stateMutability": "view",
      "type": "function"
    },
    {
      "inputs": [],
      "name": "MAX_SUPPLY",
      "outputs": [
        {
          "internalType": "uint256",
          "name": "",
          "type": "uint256"
        }
      ],
      "stateMutability": "view",
      "type": "function"
    },
    {
      "inputs": [
        {
          "internalType": "address",
          "name": "owner",
          "type": "address"
        },
        {
          "internalType": "address",
          "name": "spender",
          "type": "address"
        }
      ],
      "name": "allowance",
      "outputs": [
        {
          "internalType": "uint256",
          "name": "",
          "type": "uint256"
        }
      ],
      "stateMutability": "view",
      "type": "function"
    },
    {
      "inputs": [
        {
          "internalType": "address",
          "name": "spender",
          "type": "address"
        },
        {
          "internalType": "uint256",
          "name": "value",
          "type": "uint256"
        }
      ],
      "name": "approve",
      "outputs": [
        {
          "internalType": "bool",
          "name": "",
          "type": "bool"
        }
      ],
      "stateMutability": "nonpayable",
      "type": "function"
    },
    {
      "inputs": [
        {
          "internalType": "address",
          "name": "minter",
          "type": "address"
        }
      ],
      "name": "authorizeMinter",
      "outputs": [],
      "stateMutability": "nonpayable",
      "type": "function"
    },
    {
      "inputs": [
        {
          "internalType": "address",
          "name": "",
          "type": "address"
        }
      ],
      "name": "authorizedMinters",
      "outputs": [
        {
          "internalType": "bool",
          "name": "",
          "type": "bool"
        }
      ],
      "stateMutability": "view",
      "type": "function"
    },
    {
      "inputs": [
        {
          "internalType": "address",
          "name": "account",
          "type": "address"
        }
      ],
      "name": "balanceOf",
      "outputs": [
        {
          "internalType": "uint256",
          "name": "",
          "type": "uint256"
        }
      ],
      "stateMutability": "view",
      "type": "function"
    },
    {
      "inputs": [
        {
          "internalType": "uint256",
          "name": "amount",
          "type": "uint256"
        }
      ],
      "name": "burn",
      "outputs": [],
      "stateMutability": "nonpayable",
      "type": "function"
    },
    {
      "inputs": [
        {
          "internalType": "address",
          "name": "account",
          "type": "address"
        },
        {
          "internalType": "uint256",
          "name": "amount",
          "type": "uint256"
        }
      ],
      "name": "burnFrom",
      "outputs": [],
      "stateMutability": "nonpayable",
      "type": "function"
    },
    {
      "inputs": [
        {
          "internalType": "address",
          "name": "",
          "type": "address"
        }
      ],
      "name": "contributionRewards",
      "outputs": [
        {
          "internalType": "uint256",
          "name": "",
          "type": "uint256"
        }
      ],
      "stateMutability": "view",
      "type": "function"
    },
    {
      "inputs": [],
      "name": "decimals",
      "outputs": [
        {
          "internalType": "uint8",
          "name": "",
          "type": "uint8"
        }
      ],
      "stateMutability": "view",
      "type": "function"
    },
    {
      "inputs": [
        {
          "internalType": "address",
          "name": "delegatee",
          "type": "address"
        }
      ],
      "name": "delegate",
      "outputs": [],
      "stateMutability": "nonpayable",
      "type": "function"
    },
    {
      "inputs": [],
      "name": "eip712Domain",
      "outputs": [
        {
          "internalType": "bytes1",
          "name": "fields",
          "type": "bytes1"
        },
        {
          "internalType": "string",
          "name": "name",
          "type": "string"
        },
        {
          "internalType": "string",
          "name": "version",
          "type": "string"
        },
        {
          "internalType": "uint256",
          "name": "chainId",
          "type": "uint256"
        },
        {
          "internalType": "address",
          "name": "verifyingContract",
          "type": "address"
        },
        {
          "internalType": "bytes32",
          "name": "salt",
          "type": "bytes32"
        },
        {
          "internalType": "uint256[]",
          "name": "extensions",
          "type": "uint256[]"
        }
      ],
      "stateMutability": "view",
      "type": "function"
    },
    {
      "inputs": [
        {
          "internalType": "address",
          "name": "member",
          "type": "address"
        }
      ],
      "name": "getMemberStats",
      "outputs": [
        {
          "internalType": "uint256",
          "name": "balance",
          "type": "uint256"
        },
        {
          "internalType": "uint256",
          "name": "totalRewards",
          "type": "uint256"
        },
        {
          "internalType": "uint256",
          "name": "participationCount",
          "type": "uint256"
        }
      ],
      "stateMutability": "view",
      "type": "function"
    },
    {
      "inputs": [
        {
          "internalType": "address",
          "name": "account",
          "type": "address"
        }
      ],
      "name": "getVotes",
      "outputs": [
        {
          "internalType": "uint256",
          "name": "",
          "type": "uint256"
        }
      ],
      "stateMutability": "view",
      "type": "function"
    },
    {
      "inputs": [
        {
          "internalType": "address",
          "name": "to",
          "type": "address"
        },
        {
          "internalType": "uint256",
          "name": "amount",
          "type": "uint256"
        }
      ],
      "name": "mint",
      "outputs": [],
      "stateMutability": "nonpayable",
      "type": "function"
    },
    {
      "inputs": [],
      "name": "name",
      "outputs": [
        {
          "internalType": "string",
          "name": "",
          "type": "string"
        }
      ],
      "stateMutability": "view",
      "type": "function"
    },
    {
      "inputs": [
        {
          "internalType": "address",
          "name": "owner",
          "type": "address"
        }
      ],
      "name": "nonces",
      "outputs": [
        {
          "internalType": "uint256",
          "name": "",
          "type": "uint256"
        }
      ],
      "stateMutability": "view",
      "type": "function"
    },
    {
      "inputs": [],
      "name": "owner",
      "outputs": [
        {
          "internalType": "address",
          "name": "",
          "type": "address"
        }
      ],
      "stateMutability": "view",
      "type": "function"
    },
    {
      "inputs": [
        {
          "internalType": "address",
          "name": "",
          "type": "address"
        }
      ],
      "name": "participationScore",
      "outputs": [
        {
          "internalType": "uint256",
          "name": "",
          "type": "uint256"
        }
      ],
      "stateMutability": "view",
      "type": "function"
    },
    {
      "inputs": [
        {
          "internalType": "address",
          "name": "owner",
          "type": "address"
        },
        {
          "internalType": "address",
          "name": "spender",
          "type": "address"
        },
        {
          "internalType": "uint256",
          "name": "value",
          "type": "uint256"
        },
        {
          "internalType": "uint256",
          "name": "deadline",
          "type": "uint256"
        },
        {
          "internalType": "uint8",
          "name": "v",
          "type": "uint8"
        },
        {
          "internalType": "bytes32",
          "name": "r",
          "type": "bytes32"
        },
        {
          "internalType": "bytes32",
          "name": "s",
          "type": "bytes32"
        }
      ],
      "name": "permit",
      "outputs": [],
      "stateMutability": "nonpayable",
      "type": "function"
    },
    {
      "inputs": [],
      "name": "renounceOwnership",
      "outputs": [],
      "stateMutability": "nonpayable",
      "type": "function"
    },
    {
      "inputs": [
        {
          "internalType": "address",
          "name": "minter",
          "type": "address"
        }
      ],
      "name": "revokeMinter",
      "outputs": [],
      "stateMutability": "nonpayable",
      "type": "function"
    },
    {
      "inputs": [
        {
          "internalType": "address",
          "name": "member",
          "type": "address"
        },
        {
          "internalType": "uint256",
          "name": "contributionAmount",
          "type": "uint256"
        }
      ],
      "name": "rewardContribution",
      "outputs": [],
      "stateMutability": "nonpayable",
      "type": "function"
    },
    {
      "inputs": [],
      "name": "rewardRate",
      "outputs": [
        {
          "internalType": "uint256",
          "name": "",
          "type": "uint256"
        }
      ],
      "stateMutability": "view",
      "type": "function"
    },
    {
      "inputs": [
        {
          "internalType": "uint256",
          "name": "_newRate",
          "type": "uint256"
        }
      ],
      "name": "setRewardRate",
      "outputs": [],
      "stateMutability": "nonpayable",
      "type": "function"
    },
    {
      "inputs": [],
      "name": "symbol",
      "outputs": [
        {
          "internalType": "string",
          "name": "",
          "type": "string"
        }
      ],
      "stateMutability": "view",
      "type": "function"
    },
    {
      "inputs": [],
      "name": "totalSupply",
      "outputs": [
        {
          "internalType": "uint256",
          "name": "",
          "type": "uint256"
        }
      ],
      "stateMutability": "view",
      "type": "function"
    },
    {
      "inputs": [
        {
          "internalType": "address",
          "name": "to",
          "type": "address"
        },
        {
          "internalType": "uint256",
          "name": "value",
          "type": "uint256"
        }
      ],
      "name": "transfer",
      "outputs": [
        {
          "internalType": "bool",
          "name": "",
          "type": "bool"
        }
      ],
      "stateMutability": "nonpayable",
      "type": "function"
    },
    {
      "inputs": [
        {
          "internalType": "address",
          "name": "from",
          "type": "address"
        },
        {
          "internalType": "address",
          "name": "to",
          "type": "address"
        },
        {
          "internalType": "uint256",
          "name": "value",
          "type": "uint256"
        }
      ],
      "name": "transferFrom",
      "outputs": [
        {
          "internalType": "bool",
          "name": "",
          "type": "bool"
        }
      ],
      "stateMutability": "nonpayable",
      "type": "function"
    },
    {
      "inputs": [
        {
          "internalType": "address",
          "name": "newOwner",
          "type": "address"
        }
      ],
      "name": "transferOwnership",
      "outputs": [],
      "stateMutability": "nonpayable",
      "type": "function"
    }
  ],
  "transactionHash": "0xb645e0e8e2abb49d0a2ec6deb9970e75e8d04380457ab9b78d5dbc6509cac558",
  "args": [
    "0x2E563fe867E271d5d2B087DF9cC178eA6EdEe406"
  ],
  "numDeployments": 1,
  "solcInputHash": "255e8e0b954c07fd1de24393b413636b",
  "bytecode": "0x6101606040526103e86009553480156200001857600080fd5b5060405162001e5c38038062001e5c8339810160408190526200003b9162000438565b806040518060400160405280600f81526020016e29bab9baa1b430b4b7102a37b5b2b760891b81525080604051806040016040528060018152602001603160f81b8152506040518060400160405280600f81526020016e29bab9baa1b430b4b7102a37b5b2b760891b815250604051806040016040528060048152602001635355535560e01b8152508160039081620000d591906200050f565b506004620000e482826200050f565b50620000f691508390506005620001f9565b6101205262000107816006620001f9565b61014052815160208084019190912060e052815190820120610100524660a0526200019560e05161010051604080517f8b73c3c69bb8fe3d512ecc4cf759cc79239f7b179b0ffacaa9a75d522b39400f60208201529081019290925260608201524660808201523060a082015260009060c00160405160208183030381529060405280519060200120905090565b60805250503060c052506001600160a01b038116620001cf57604051631e4fbdf760e01b8152600060048201526024015b60405180910390fd5b620001da8162000232565b50620001f2816a084595161401484a00000062000284565b5062000672565b600060208351101562000219576200021183620002c2565b90506200022c565b816200022684826200050f565b5060ff90505b92915050565b600880546001600160a01b038381166001600160a01b0319831681179093556040519116919082907f8be0079c531659141344cd1fd0a4f28419497f9722a3daafe3b4186f6b6457e090600090a35050565b6001600160a01b038216620002b05760405163ec442f0560e01b815260006004820152602401620001c6565b620002be6000838362000305565b5050565b600080829050601f81511115620002f0578260405163305a27a960e01b8152600401620001c69190620005db565b8051620002fd826200062b565b179392505050565b6001600160a01b0383166200033457806002600082825462000328919062000650565b90915550620003a89050565b6001600160a01b03831660009081526020819052604090205481811015620003895760405163391434e360e21b81526001600160a01b03851660048201526024810182905260448101839052606401620001c6565b6001600160a01b03841660009081526020819052604090209082900390555b6001600160a01b038216620003c657600280548290039055620003e5565b6001600160a01b03821660009081526020819052604090208054820190555b816001600160a01b0316836001600160a01b03167fddf252ad1be2c89b69c2b068fc378daa952ba7f163c4a11628f55a4df523b3ef836040516200042b91815260200190565b60405180910390a3505050565b6000602082840312156200044b57600080fd5b81516001600160a01b03811681146200046357600080fd5b9392505050565b634e487b7160e01b600052604160045260246000fd5b600181811c908216806200049557607f821691505b602082108103620004b657634e487b7160e01b600052602260045260246000fd5b50919050565b601f8211156200050a57600081815260208120601f850160051c81016020861015620004e55750805b601f850160051c820191505b818110156200050657828155600101620004f1565b5050505b505050565b81516001600160401b038111156200052b576200052b6200046a565b62000543816200053c845462000480565b84620004bc565b602080601f8311600181146200057b5760008415620005625750858301515b600019600386901b1c1916600185901b17855562000506565b600085815260208120601f198616915b82811015620005ac578886015182559484019460019091019084016200058b565b5085821015620005cb5787850151600019600388901b60f8161c191681555b5050505050600190811b01905550565b600060208083528351808285015260005b818110156200060a57858101830151858201604001528201620005ec565b506000604082860101526040601f19601f8301168501019250505092915050565b80516020808301519190811015620004b65760001960209190910360031b1b16919050565b808201808211156200022c57634e487b7160e01b600052601160045260246000fd5b60805160a05160c05160e05161010051610120516101405161178f620006cd6000396000610f2801526000610efb01526000610e1b01526000610df301526000610d4e01526000610d7801526000610da2015261178f6000f3fe608060405234801561001057600080fd5b50600436106101e55760003560e01c8063715018a61161010f5780639e447fc6116100a2578063cfbd488511610071578063cfbd488514610441578063d505accf14610454578063dd62ed3e14610467578063f2fde38b1461047a57600080fd5b80639e447fc6146103d8578063a854851d146103eb578063a9059cbb1461040b578063aa2fe91b1461041e57600080fd5b806384b0196e116100de57806384b0196e146103875780638da5cb5b146103a257806395d89b41146103bd5780639ab24eb0146103c557600080fd5b8063715018a61461035057806379cc6790146103585780637b0a47ee1461036b5780637ecebe001461037457600080fd5b806332cb6b0c116101875780635c19a95c116101565780635c19a95c146102c85780635fb99f39146102d95780636075f984146102f957806370a082311461032757600080fd5b806332cb6b0c146102875780633644e5151461029a57806340c10f19146102a257806342966c68146102b557600080fd5b806318160ddd116101c357806318160ddd1461024057806323b872dd14610252578063313ce5671461026557806332679d791461027457600080fd5b806306fdde03146101ea578063095ea7b3146102085780630c9848321461022b575b600080fd5b6101f261048d565b6040516101ff9190611488565b60405180910390f35b61021b6102163660046114be565b61051f565b60405190151581526020016101ff565b61023e6102393660046114e8565b610539565b005b6002545b6040519081526020016101ff565b61021b610260366004611503565b61058d565b604051601281526020016101ff565b61023e6102823660046114be565b6105b1565b6102446b033b2e3c9fd0803ce800000081565b610244610708565b61023e6102b03660046114be565b610717565b61023e6102c336600461153f565b6107ec565b61023e6102d63660046114e8565b50565b6102446102e73660046114e8565b600c6020526000908152604090205481565b61030c6103073660046114e8565b6107f6565b604080519384526020840192909252908201526060016101ff565b6102446103353660046114e8565b6001600160a01b031660009081526020819052604090205490565b61023e61084c565b61023e6103663660046114be565b610860565b61024460095481565b6102446103823660046114e8565b6108e8565b61038f610906565b6040516101ff9796959493929190611558565b6008546040516001600160a01b0390911681526020016101ff565b6101f261094c565b6102446103d33660046114e8565b61095b565b61023e6103e636600461153f565b610979565b6102446103f93660046114e8565b600b6020526000908152604090205481565b61021b6104193660046114be565b610a0c565b61021b61042c3660046114e8565b600a6020526000908152604090205460ff1681565b61023e61044f3660046114e8565b610a1a565b61023e6104623660046115ee565b610a6b565b610244610475366004611661565b610ba5565b61023e6104883660046114e8565b610bd0565b60606003805461049c90611694565b80601f01602080910402602001604051908101604052809291908181526020018280546104c890611694565b80156105155780601f106104ea57610100808354040283529160200191610515565b820191906000526020600020905b8154815290600101906020018083116104f857829003601f168201915b5050505050905090565b60003361052d818585610c0b565b60019150505b92915050565b610541610c18565b6001600160a01b0381166000818152600a6020526040808220805460ff19166001179055517f83b05b6735acd4b85e3bded8e72c851d1a87718f81e3c8e6f0c9d9a2baa88e469190a250565b60003361059b858285610c45565b6105a6858585610cac565b506001949350505050565b336000908152600a602052604090205460ff1661060e5760405162461bcd60e51b8152602060048201526016602482015275139bdd08185d5d1a1bdc9a5e9959081d1bc81b5a5b9d60521b60448201526064015b60405180910390fd5b6000670de0b6b3a76400006009548361062791906116e4565b61063191906116fb565b90506b033b2e3c9fd0803ce80000008161064a60025490565b610654919061171d565b11610703576106638382610d0b565b6001600160a01b0383166000908152600b60205260408120805483929061068b90849061171d565b90915550506001600160a01b0383166000908152600c602052604081208054600192906106b990849061171d565b909155505060408051828152602081018490526001600160a01b038516917f53118bff2fb56701752f5bf54053d24fb83cec92f9f6ce664b90c38a2991caa4910160405180910390a25b505050565b6000610712610d41565b905090565b336000908152600a602052604090205460ff1661076f5760405162461bcd60e51b8152602060048201526016602482015275139bdd08185d5d1a1bdc9a5e9959081d1bc81b5a5b9d60521b6044820152606401610605565b6b033b2e3c9fd0803ce80000008161078660025490565b610790919061171d565b11156107de5760405162461bcd60e51b815260206004820152601760248201527f576f756c6420657863656564206d617820737570706c790000000000000000006044820152606401610605565b6107e88282610d0b565b5050565b6102d63382610e6c565b600080600061081a846001600160a01b031660009081526020819052604090205490565b6001600160a01b03949094166000908152600b6020908152604080832054600c90925290912054949590949350915050565b610854610c18565b61085e6000610ea2565b565b600061086c8333610ba5565b9050818110156108ca5760405162461bcd60e51b8152602060048201526024808201527f45524332303a206275726e20616d6f756e74206578636565647320616c6c6f77604482015263616e636560e01b6064820152608401610605565b6108de83336108d98585611730565b610c0b565b6107038383610e6c565b6001600160a01b038116600090815260076020526040812054610533565b60006060806000806000606061091a610ef4565b610922610f21565b60408051600080825260208201909252600f60f81b9b939a50919850469750309650945092509050565b60606004805461049c90611694565b6001600160a01b038116600090815260208190526040812054610533565b610981610c18565b600081116109d15760405162461bcd60e51b815260206004820152601c60248201527f5265776172642072617465206d75737420626520706f736974697665000000006044820152606401610605565b60098190556040518181527f41d466ebd06fb97e7786086ac8b69b7eb7da798592036251291d34e9791cde019060200160405180910390a150565b60003361052d818585610cac565b610a22610c18565b6001600160a01b0381166000818152600a6020526040808220805460ff19169055517f44f4322f8daa225d5f4877ad0f7d3dfba248a774396f3ca99405ed40a044fe819190a250565b83421115610a8f5760405163313c898160e11b815260048101859052602401610605565b60007f6e71edae12b1b97f4d1f60370fef10105fa2faae0126114a169c64845d6126c9888888610adc8c6001600160a01b0316600090815260076020526040902080546001810190915590565b6040805160208101969096526001600160a01b0394851690860152929091166060840152608083015260a082015260c0810186905260e0016040516020818303038152906040528051906020012090506000610b3782610f4e565b90506000610b4782878787610f7b565b9050896001600160a01b0316816001600160a01b031614610b8e576040516325c0072360e11b81526001600160a01b0380831660048301528b166024820152604401610605565b610b998a8a8a610c0b565b50505050505050505050565b6001600160a01b03918216600090815260016020908152604080832093909416825291909152205490565b610bd8610c18565b6001600160a01b038116610c0257604051631e4fbdf760e01b815260006004820152602401610605565b6102d681610ea2565b6107038383836001610fa9565b6008546001600160a01b0316331461085e5760405163118cdaa760e01b8152336004820152602401610605565b6000610c518484610ba5565b9050600019811015610ca65781811015610c9757604051637dc7a0d960e11b81526001600160a01b03841660048201526024810182905260448101839052606401610605565b610ca684848484036000610fa9565b50505050565b6001600160a01b038316610cd657604051634b637e8f60e11b815260006004820152602401610605565b6001600160a01b038216610d005760405163ec442f0560e01b815260006004820152602401610605565b61070383838361107e565b6001600160a01b038216610d355760405163ec442f0560e01b815260006004820152602401610605565b6107e86000838361107e565b6000306001600160a01b037f000000000000000000000000000000000000000000000000000000000000000016148015610d9a57507f000000000000000000000000000000000000000000000000000000000000000046145b15610dc457507f000000000000000000000000000000000000000000000000000000000000000090565b610712604080517f8b73c3c69bb8fe3d512ecc4cf759cc79239f7b179b0ffacaa9a75d522b39400f60208201527f0000000000000000000000000000000000000000000000000000000000000000918101919091527f000000000000000000000000000000000000000000000000000000000000000060608201524660808201523060a082015260009060c00160405160208183030381529060405280519060200120905090565b6001600160a01b038216610e9657604051634b637e8f60e11b815260006004820152602401610605565b6107e88260008361107e565b600880546001600160a01b038381166001600160a01b0319831681179093556040519116919082907f8be0079c531659141344cd1fd0a4f28419497f9722a3daafe3b4186f6b6457e090600090a35050565b60606107127f000000000000000000000000000000000000000000000000000000000000000060056111a8565b60606107127f000000000000000000000000000000000000000000000000000000000000000060066111a8565b6000610533610f5b610d41565b8360405161190160f01b8152600281019290925260228201526042902090565b600080600080610f8d88888888611253565b925092509250610f9d8282611322565b50909695505050505050565b6001600160a01b038416610fd35760405163e602df0560e01b815260006004820152602401610605565b6001600160a01b038316610ffd57604051634a1406b160e11b815260006004820152602401610605565b6001600160a01b0380851660009081526001602090815260408083209387168352929052208290558015610ca657826001600160a01b0316846001600160a01b03167f8c5be1e5ebec7d5bd14f71427d1e84f3dd0314c0f7b2291e5b200ac8c7c3b9258460405161107091815260200190565b60405180910390a350505050565b6001600160a01b0383166110a957806002600082825461109e919061171d565b9091555061111b9050565b6001600160a01b038316600090815260208190526040902054818110156110fc5760405163391434e360e21b81526001600160a01b03851660048201526024810182905260448101839052606401610605565b6001600160a01b03841660009081526020819052604090209082900390555b6001600160a01b03821661113757600280548290039055611156565b6001600160a01b03821660009081526020819052604090208054820190555b816001600160a01b0316836001600160a01b03167fddf252ad1be2c89b69c2b068fc378daa952ba7f163c4a11628f55a4df523b3ef8360405161119b91815260200190565b60405180910390a3505050565b606060ff83146111c2576111bb836113db565b9050610533565b8180546111ce90611694565b80601f01602080910402602001604051908101604052809291908181526020018280546111fa90611694565b80156112475780601f1061121c57610100808354040283529160200191611247565b820191906000526020600020905b81548152906001019060200180831161122a57829003601f168201915b50505050509050610533565b600080807f7fffffffffffffffffffffffffffffff5d576e7357a4501ddfe92f46681b20a084111561128e5750600091506003905082611318565b604080516000808252602082018084528a905260ff891692820192909252606081018790526080810186905260019060a0016020604051602081039080840390855afa1580156112e2573d6000803e3d6000fd5b5050604051601f1901519150506001600160a01b03811661130e57506000925060019150829050611318565b9250600091508190505b9450945094915050565b600082600381111561133657611336611743565b0361133f575050565b600182600381111561135357611353611743565b036113715760405163f645eedf60e01b815260040160405180910390fd5b600282600381111561138557611385611743565b036113a65760405163fce698f760e01b815260048101829052602401610605565b60038260038111156113ba576113ba611743565b036107e8576040516335e2f38360e21b815260048101829052602401610605565b606060006113e88361141a565b604080516020808252818301909252919250600091906020820181803683375050509182525060208101929092525090565b600060ff8216601f81111561053357604051632cd44ac360e21b815260040160405180910390fd5b6000815180845260005b818110156114685760208185018101518683018201520161144c565b506000602082860101526020601f19601f83011685010191505092915050565b60208152600061149b6020830184611442565b9392505050565b80356001600160a01b03811681146114b957600080fd5b919050565b600080604083850312156114d157600080fd5b6114da836114a2565b946020939093013593505050565b6000602082840312156114fa57600080fd5b61149b826114a2565b60008060006060848603121561151857600080fd5b611521846114a2565b925061152f602085016114a2565b9150604084013590509250925092565b60006020828403121561155157600080fd5b5035919050565b60ff60f81b881681526000602060e08184015261157860e084018a611442565b838103604085015261158a818a611442565b606085018990526001600160a01b038816608086015260a0850187905284810360c0860152855180825283870192509083019060005b818110156115dc578351835292840192918401916001016115c0565b50909c9b505050505050505050505050565b600080600080600080600060e0888a03121561160957600080fd5b611612886114a2565b9650611620602089016114a2565b95506040880135945060608801359350608088013560ff8116811461164457600080fd5b9699959850939692959460a0840135945060c09093013592915050565b6000806040838503121561167457600080fd5b61167d836114a2565b915061168b602084016114a2565b90509250929050565b600181811c908216806116a857607f821691505b6020821081036116c857634e487b7160e01b600052602260045260246000fd5b50919050565b634e487b7160e01b600052601160045260246000fd5b8082028115828204841417610533576105336116ce565b60008261171857634e487b7160e01b600052601260045260246000fd5b500490565b80820180821115610533576105336116ce565b81810381811115610533576105336116ce565b634e487b7160e01b600052602160045260246000fdfea2646970667358221220eefcbe155bb3266d94a12ebb70925be1cf14e684b11d32614930d7fefb43e63564736f6c63430008140033",
  "devdoc": {
    "errors": {
      "ECDSAInvalidSignature()": [
        {
          "details": "The signature derives the `address(0)`."
        }
      ],
      "ECDSAInvalidSignatureLength(uint256)": [
        {
          "details": "The signature has an invalid length."
        }
      ],
      "ECDSAInvalidSignatureS(bytes32)": [
        {
          "details": "The signature has an S value that is in the upper half order."
        }
      ],
      "ERC20InsufficientAllowance(address,uint256,uint256)": [
        {
          "details": "Indicates a failure with the `spender`s `allowance`. Used in transfers.",
          "params": {
            "allowance": "Amount of tokens a `spender` is allowed to operate with.",
            "needed": "Minimum amount required to perform a transfer.",
            "spender": "Address that may be allowed to operate on tokens without being their owner."
          }
        }
      ],
      "ERC20InsufficientBalance(address,uint256,uint256)": [
        {
          "details": "Indicates an error related to the current `balance` of a `sender`. Used in transfers.",
          "params": {
            "balance": "Current balance for the interacting account.",
            "needed": "Minimum amount required to perform a transfer.",
            "sender": "Address whose tokens are being transferred."
          }
        }
      ],
      "ERC20InvalidApprover(address)": [
        {
          "details": "Indicates a failure with the `approver` of a token to be approved. Used in approvals.",
          "params": {
            "approver": "Address initiating an approval operation."
          }
        }
      ],
      "ERC20InvalidReceiver(address)": [
        {
          "details": "Indicates a failure with the token `receiver`. Used in transfers.",
          "params": {
            "receiver": "Address to which tokens are being transferred."
          }
        }
      ],
      "ERC20InvalidSender(address)": [
        {
          "details": "Indicates a failure with the token `sender`. Used in transfers.",
          "params": {
            "sender": "Address whose tokens are being transferred."
          }
        }
      ],
      "ERC20InvalidSpender(address)": [
        {
          "details": "Indicates a failure with the `spender` to be approved. Used in approvals.",
          "params": {
            "spender": "Address that may be allowed to operate on tokens without being their owner."
          }
        }
      ],
      "ERC2612ExpiredSignature(uint256)": [
        {
          "details": "Permit deadline has expired."
        }
      ],
      "ERC2612InvalidSigner(address,address)": [
        {
          "details": "Mismatched signature."
        }
      ],
      "InvalidAccountNonce(address,uint256)": [
        {
          "details": "The nonce used for an `account` is not the expected current nonce."
        }
      ],
      "OwnableInvalidOwner(address)": [
        {
          "details": "The owner is not a valid owner account. (eg. `address(0)`)"
        }
      ],
      "OwnableUnauthorizedAccount(address)": [
        {
          "details": "The caller account is not authorized to perform an operation."
        }
      ]
    },
    "events": {
      "Approval(address,address,uint256)": {
        "details": "Emitted when the allowance of a `spender` for an `owner` is set by a call to {approve}. `value` is the new allowance."
      },
      "EIP712DomainChanged()": {
        "details": "MAY be emitted to signal that the domain could have changed."
      },
      "Transfer(address,address,uint256)": {
        "details": "Emitted when `value` tokens are moved from one account (`from`) to another (`to`). Note that `value` may be zero."
      }
    },
    "kind": "dev",
    "methods": {
      "DOMAIN_SEPARATOR()": {
        "details": "Returns the domain separator used in the encoding of the signature for {permit}, as defined by {EIP712}."
      },
      "allowance(address,address)": {
        "details": "Returns the remaining number of tokens that `spender` will be allowed to spend on behalf of `owner` through {transferFrom}. This is zero by default. This value changes when {approve} or {transferFrom} are called."
      },
      "approve(address,uint256)": {
        "details": "See {IERC20-approve}. NOTE: If `value` is the maximum `uint256`, the allowance is not updated on `transferFrom`. This is semantically equivalent to an infinite approval. Requirements: - `spender` cannot be the zero address."
      },
      "balanceOf(address)": {
        "details": "Returns the value of tokens owned by `account`."
      },
      "decimals()": {
        "details": "Returns the number of decimals used to get its user representation. For example, if `decimals` equals `2`, a balance of `505` tokens should be displayed to a user as `5.05` (`505 / 10 ** 2`). Tokens usually opt for a value of 18, imitating the relationship between Ether and Wei. This is the default value returned by this function, unless it's overridden. NOTE: This information is only used for _display_ purposes: it in no way affects any of the arithmetic of the contract, including {IERC20-balanceOf} and {IERC20-transfer}."
      },
      "eip712Domain()": {
        "details": "returns the fields and values that describe the domain separator used by this contract for EIP-712 signature."
      },
      "name()": {
        "details": "Returns the name of the token."
      },
      "nonces(address)": {
        "details": "Returns the current nonce for `owner`. This value must be included whenever a signature is generated for {permit}. Every successful call to {permit} increases ``owner``'s nonce by one. This prevents a signature from being used multiple times."
      },
      "owner()": {
        "details": "Returns the address of the current owner."
      },
      "permit(address,address,uint256,uint256,uint8,bytes32,bytes32)": {
        "details": "Sets `value` as the allowance of `spender` over ``owner``'s tokens, given ``owner``'s signed approval. IMPORTANT: The same issues {IERC20-approve} has related to transaction ordering also apply here. Emits an {Approval} event. Requirements: - `spender` cannot be the zero address. - `deadline` must be a timestamp in the future. - `v`, `r` and `s` must be a valid `secp256k1` signature from `owner` over the EIP712-formatted function arguments. - the signature must use ``owner``'s current nonce (see {nonces}). For more information on the signature format, see the https://eips.ethereum.org/EIPS/eip-2612#specification[relevant EIP section]. CAUTION: See Security Considerations above."
      },
      "renounceOwnership()": {
        "details": "Leaves the contract without owner. It will not be possible to call `onlyOwner` functions. Can only be called by the current owner. NOTE: Renouncing ownership will leave the contract without an owner, thereby disabling any functionality that is only available to the owner."
      },
      "symbol()": {
        "details": "Returns the symbol of the token, usually a shorter version of the name."
      },
      "totalSupply()": {
        "details": "Returns the value of tokens in existence."
      },
      "transfer(address,uint256)": {
        "details": "See {IERC20-transfer}. Requirements: - `to` cannot be the zero address. - the caller must have a balance of at least `value`."
      },
      "transferFrom(address,address,uint256)": {
        "details": "See {IERC20-transferFrom}. Skips emitting an {Approval} event indicating an allowance update. This is not required by the ERC. See {xref-ERC20-_approve-address-address-uint256-bool-}[_approve]. NOTE: Does not update the allowance if the current allowance is the maximum `uint256`. Requirements: - `from` and `to` cannot be the zero address. - `from` must have a balance of at least `value`. - the caller must have allowance for ``from``'s tokens of at least `value`."
      },
      "transferOwnership(address)": {
        "details": "Transfers ownership of the contract to a new account (`newOwner`). Can only be called by the current owner."
      }
    },
    "version": 1
  },
  "userdoc": {
    "kind": "user",
    "methods": {},
    "version": 1
  },
  "storageLayout": {
    "storage": [
      {
        "astId": 332,
        "contract": "contracts/SusuToken.sol:SusuToken",
        "label": "_balances",
        "offset": 0,
        "slot": "0",
        "type": "t_mapping(t_address,t_uint256)"
      },
      {
        "astId": 338,
        "contract": "contracts/SusuToken.sol:SusuToken",
        "label": "_allowances",
        "offset": 0,
        "slot": "1",
        "type": "t_mapping(t_address,t_mapping(t_address,t_uint256))"
      },
      {
        "astId": 340,
        "contract": "contracts/SusuToken.sol:SusuToken",
        "label": "_totalSupply",
        "offset": 0,
        "slot": "2",
        "type": "t_uint256"
      },
      {
        "astId": 342,
        "contract": "contracts/SusuToken.sol:SusuToken",
        "label": "_name",
        "offset": 0,
        "slot": "3",
        "type": "t_string_storage"
      },
      {
        "astId": 344,
        "contract": "contracts/SusuToken.sol:SusuToken",
        "label": "_symbol",
        "offset": 0,
        "slot": "4",
        "type": "t_string_storage"
      },
      {
        "astId": 3465,
        "contract": "contracts/SusuToken.sol:SusuToken",
        "label": "_nameFallback",
        "offset": 0,
        "slot": "5",
        "type": "t_string_storage"
      },
      {
        "astId": 3467,
        "contract": "contracts/SusuToken.sol:SusuToken",
        "label": "_versionFallback",
        "offset": 0,
        "slot": "6",
        "type": "t_string_storage"
      },
      {
        "astId": 1162,
        "contract": "contracts/SusuToken.sol:SusuToken",
        "label": "_nonces",
        "offset": 0,
        "slot": "7",
        "type": "t_mapping(t_address,t_uint256)"
      },
      {
        "astId": 8,
        "contract": "contracts/SusuToken.sol:SusuToken",
        "label": "_owner",
        "offset": 0,
        "slot": "8",
        "type": "t_address"
      },
      {
        "astId": 8952,
        "contract": "contracts/SusuToken.sol:SusuToken",
        "label": "rewardRate",
        "offset": 0,
        "slot": "9",
        "type": "t_uint256"
      },
      {
        "astId": 8956,
        "contract": "contracts/SusuToken.sol:SusuToken",
        "label": "authorizedMinters",
        "offset": 0,
        "slot": "10",
        "type": "t_mapping(t_address,t_bool)"
      },
      {
        "astId": 8960,
        "contract": "contracts/SusuToken.sol:SusuToken",
        "label": "contributionRewards",
        "offset": 0,
        "slot": "11",
        "type": "t_mapping(t_address,t_uint256)"
      },
      {
        "astId": 8964,
        "contract": "contracts/SusuToken.sol:SusuToken",
        "label": "participationScore",
        "offset": 0,
        "slot": "12",
        "type": "t_mapping(t_address,t_uint256)"
      }
    ],
    "types": {
      "t_address": {
        "encoding": "inplace",
        "label": "address",
        "numberOfBytes": "20"
      },
      "t_bool": {
        "encoding": "inplace",
        "label": "bool",
        "numberOfBytes": "1"
      },
      "t_mapping(t_address,t_bool)": {
        "encoding": "mapping",
        "key": "t_address",
        "label": "mapping(address => bool)",
        "numberOfBytes": "32",
        "value": "t_bool"
      },
      "t_mapping(t_address,t_mapping(t_address,t_uint256))": {
        "encoding": "mapping",
        "key": "t_address",
        "label": "mapping(address => mapping(address => uint256))",
        "numberOfBytes": "32",
        "value": "t_mapping(t_address,t_uint256)"
      },
      "t_mapping(t_address,t_uint256)": {
        "encoding": "mapping",
        "key": "t_address",
        "label": "mapping(address => uint256)",
        "numberOfBytes": "32",
        "value": "t_uint256"
      },
      "t_string_storage": {
        "encoding": "bytes",
        "label": "string",
        "numberOfBytes": "32"
      },
      "t_uint256": {
        "encoding": "inplace",
        "label": "uint256",
        "numberOfBytes": "32"
      }
    }
  }
}